:100000000C9458000C9477000C9477000C947700B3
:100010000C9477000C9477000C9477000C94770084
:100020000C9477000C9477000C9477000C94770074
:100030000C9477000C9477000C9477000C94770064
:100040000C9477000C9477000C9477000C94770054
:100050000C9477000C9477000C9477000C94770044
:100060000C9477000C9477000C9477000C94770034
:100070000C9477000C9477000C9477000C94770024
:100080000C9477000C9477000C947700CA00D10090
:10009000E200F30004011501260137014801860141
:1000A0006E018601740186017A0186018001860154
:1000B00011241FBECFEFD0E4DEBFCDBF11E0A0E022
:1000C000B1E0E0E7F3E000E00BBF02C007900D9263
:1000D000AE30B107D9F721E0AEE0B1E001C01D922A
:1000E000A031B207E1F70E948C010C94B6010C9488
:1000F0000000CF93DF9300D01F92CDB7DEB7898386
:100100007B836A8389818A3031F48A819B81BC0137
:100110008DE00E94790080EC90E0FC018081882FC6
:1001200090E080729927892BB1F386EC90E02981C9
:10013000FC01208380E090E00F900F900F90DF9102
:10014000CF910895CF93DF931F92CDB7DEB780E2B2
:1001500090E0FC018081882F90E08170992721E058
:10016000892B09F020E0298380910E0190910F01E5
:10017000CC01A0E0B0E040E050E028E030E0841B9B
:10018000950B2817390708F494C08A5B9F4FFC0130
:100190000C94AD0181E090E090930F0180930E01EB
:1001A00088C08981882339F082E090E090930F0124
:1001B00080930E017EC081E090E090930F018093C8
:1001C0000E0177C08981882339F483E090E0909311
:1001D0000F0180930E016DC082E090E090930F01BB
:1001E00080930E0166C08981882339F084E090E015
:1001F00090930F0180930E015CC083E090E0909398
:100200000F0180930E0155C08981882339F485E060
:1002100090E090930F0180930E014BC084E090E03A
:1002200090930F0180930E0144C08981882339F097
:1002300086E090E090930F0180930E013AC085E034
:1002400090E090930F0180930E0133C08981882341
:1002500039F487E090E090930F0180930E0129C05C
:1002600086E090E090930F0180930E0122C0898177
:10027000882339F088E090E090930F0180930E017D
:1002800018C087E090E090930F0180930E0111C099
:100290008981882339F481E090E090930F01809365
:1002A0000E0107C088E090E090930F0180930E014B
:1002B000000080910E0190910F01CC01A0E0B0E010
:1002C00040E050E028E030E0841B950B2817390708
:1002D000F0F0815B9F4FFC010C94AD0188E290E04F
:1002E00023E0FC01208313C088E290E024E6FC01B7
:1002F00020830DC088E290E028ECFC01208307C039
:1003000088E290E02FEFFC01208301C00000000094
:100310000F90DF91CF910895CF93DF93CDB7DEB7E4
:1003200081E290E0FC01108282E290E02FEFFC017C
:10033000208387E290E02FEFFC01208388E290E0A9
:10034000FC01108210920F0110920E0188E290E0E1
:10035000FC0110820E94A200FDCFEE0FFF1F0024BF
:10036000001C0BBE0790F691E02D0994F894FFCF86
:0E037000000000020000000079000000000004
:00000001FF
