:100000000C9446000C9465000C9465000C946500FB
:100010000C9465000C9465000C9465000C946500CC
:100020000C9465000C9465000C9465000C946500BC
:100030000C9465000C94DE000C9465000C94650033
:100040000C9465000C9465000C9465000C9465009C
:100050000C9465000C9465000C9465000C9465008C
:100060000C9465000C9465000C9465000C9465007C
:100070000C9465000C9465000C9465000C9465006C
:100080000C9465000C9465000C94650011241FBE4F
:10009000CFEFD0E4DEBFCDBF11E0A0E0B1E0E8E5F6
:1000A000FAE000E00BBF02C007900D92AC37B10739
:1000B000D9F721E0ACE7B1E001C01D92A938B20741
:1000C000E1F70E94F7020C942A050C940000CF93EC
:1000D000DF9300D01F92CDB7DEB789837B836A831D
:1000E00089818A3031F48A819B81BC018DE00E9434
:1000F000670080EC90E0FC018081882F90E08072A6
:100100009927892BB1F386EC90E02981FC012083AB
:1001100080E090E00F900F900F90DF91CF910895C5
:10012000CF93DF93CDB7DEB781E890E02BE0FC0101
:10013000208388E890E02DE730E0FC0131832083C4
:100140008FE690E022E0FC01208384E890E0FC014F
:100150001182108280910E0190910F01A0911001E7
:10016000B091110180937D0190937E01A0937F0156
:10017000B09380018FE590E02FE530E0F901208118
:100180002068FC0120830000DF91CF910895CF9378
:10019000DF93CDB7DEB781E890E0FC01108200006C
:1001A000DF91CF910895CF93DF93CDB7DEB781E094
:1001B00080937C010000DF91CF9108951F920F92F0
:1001C00000905F000F92112400905B000F922F931C
:1001D0003F934F935F936F937F938F939F93AF93CF
:1001E000BF93EF93FF93CF93DF93CDB7DEB78091AB
:1001F0007D0190917E01A0917F01B09180010197D6
:10020000A109B10980937D0190937E01A0937F01A4
:10021000B093800180917D0190917E01A0917F013A
:10022000B0918001892B8A2B8B2B91F40E94D300F3
:1002300080910E0190910F01A0911001B0911101D8
:1002400080937D0190937E01A0937F01B093800104
:100250000000DF91CF91FF91EF91BF91AF919F91FE
:100260008F917F916F915F914F913F912F910F905F
:1002700000925B000F9000925F000F901F90189506
:10028000CF93DF9300D000D0CDB7DEB769837A83F8
:100290008B839C8389819A81AB81BC8180930E0181
:1002A00090930F01A0931001B093110180910E0162
:1002B00090910F01A0911001B091110180937D01E7
:1002C00090937E01A0937F01B093800100000F9076
:1002D0000F900F900F90DF91CF9108950F931F9380
:1002E000CF93DF9300D000D0CDB7DEB769837A8398
:1002F0008B839C838091830190918401A0918501DF
:10030000B09186019C01AD0169817A818B819C81CC
:100310000E945903882309F477C020E030E0A90146
:1003200069817A818B819C810E945903882351F4D1
:1003300081E990E021E930E0F90120812870FC0199
:10034000208309C081E990E021E930E0F9012081B2
:100350002360FC01208328E539E344E75FE36981FA
:100360007A818B819C810E945903882344F488E917
:1003700090E02FEF3FEFFC013183208334C020E079
:1003800034E244EF56E469817A818B819C810E943A
:10039000B804181634F488E990E0FC011182108248
:1003A00022C008E910E020E030E040E053E4698139
:1003B0007A818B819C810E94BD04DC01CB019C0170
:1003C000AD0160E074E284EF9AE40E945E03DC0118
:1003D000CB01BC01CD010E94D003DC01CB01019710
:1003E000F8019183808384E990E0FC0111821082FE
:1003F00089819A81AB81BC81809383019093840130
:10040000A0938501B093860100000F900F900F908C
:100410000F90DF91CF911F910F910895CF93DF93AC
:10042000CDB7DEB780E990E020E4FC01208381E9CC
:1004300090E02BE0FC01208360E070E0CB010E94A3
:100440006E010000DF91CF910895CF93DF93CDB778
:10045000DEB780E990E0FC01108281E990E0FC01C8
:1004600010820000DF91CF910895CF93DF93CDB735
:10047000DEB780918701909188018130910589F0E4
:100480008130910538F082309105F9F0039709F435
:1004900049C065C081E090E0909388018093870116
:1004A0005EC080E290E0FC018081882F90E0809522
:1004B000909587709927019709F04EC082E090E0EF
:1004C000909388018093870147C080918101893191
:1004D00099F480E290E0FC018081882F90E0809583
:1004E000909587709927892B39F083E090E090935D
:1004F00088018093870132C082E090E09093880168
:1005000080938701809181018A3141F560E070E03C
:10051000CB010E946E0181E090E09093880180936E
:1005200087011CC080E290E0FC018081882F90E070
:100530008095909587709927892B39F481E090E018
:1005400090938801809387010AC083E090E09093A4
:1005500088018093870103C0000001C000008091E2
:100560008701909188018130910549F08130910592
:10057000C8F18230910549F0039761F134C060E021
:1005800070E0CB010E946E012EC080918101882F06
:1005900090E0880F991F8E5E9E4FFC0180819181B3
:1005A000CC01A0E0B0E0BC01CD010E940604DC015A
:1005B000CB01BC01CD010E946E0180918101882F89
:1005C00090E001962CE130E0B9010E943103809364
:1005D000810109C01092810160E070E0CB010E94AE
:1005E0006E0101C000000000DF91CF910895CF930C
:1005F000DF93CDB7DEB781E290E0FC01108282E2AA
:1006000090E02FEFFC01208384E290E02FEFFC01CB
:10061000208385E290E0FC01108210928801109204
:1006200087010E940E020E94900080918101882F14
:1006300090E0880F991F8A5B9E4FFC018081918119
:10064000CC01A0E0B0E0BC01CD010E9440010E94BD
:100650003502000080917C018823E1F310927C0137
:10066000E4CF97FB072E16F4009407D077FD09D04E
:100670000E94450307FC05D03EF4909581959F4F5D
:100680000895709561957F4F0895AA1BBB1B51E19A
:1006900007C0AA1FBB1FA617B70710F0A61BB70BF2
:1006A000881F991F5A95A9F780959095BC01CD0197
:1006B00008950E94430408F481E008950E947203A3
:1006C0000C947E040E94770458F00E94700440F05D
:1006D00029F45F3F29F00C94670451110C94B20483
:1006E0000C946D040E948F0468F39923B1F3552391
:1006F00091F3951B550BBB27AA2762177307840735
:1007000038F09F5F5F4F220F331F441FAA1FA9F3CA
:1007100035D00E2E3AF0E0E832D091505040E695B8
:10072000001CCAF72BD0FE2F29D0660F771F881F19
:10073000BB1F261737074807AB07B0E809F0BB0B0C
:10074000802DBF01FF2793585F4F3AF09E3F510520
:1007500078F00C9467040C94B2045F3FE4F3983E85
:10076000D4F3869577956795B795F7959F5FC9F709
:10077000880F911D9695879597F90895E1E0660F8A
:10078000771F881FBB1F621773078407BA0720F003
:10079000621B730B840BBA0BEE1F88F7E09508956C
:1007A0000E94D7036894B1110C94B20408950E947A
:1007B000970488F09F5798F0B92F9927B751B0F058
:1007C000E1F0660F771F881F991F1AF0BA95C9F7D5
:1007D00014C0B13091F00E94B104B1E008950C94BE
:1007E000B104672F782F8827B85F39F0B93FCCF371
:1007F000869577956795B395D9F73EF49095809552
:10080000709561957F4F8F4F9F4F0895E89409C071
:1008100097FB3EF490958095709561957F4F8F4F33
:100820009F4F9923A9F0F92F96E9BB279395F69549
:10083000879577956795B795F111F8CFFAF4BB0FC7
:1008400011F460FF1BC06F5F7F4F8F4F9F4F16C02B
:10085000882311F096E911C0772321F09EE8872FB5
:10086000762F05C0662371F096E8862F70E060E071
:100870002AF09A95660F771F881FDAF7880F9695EA
:10088000879597F90895990F0008550FAA0BE0E88E
:10089000FEEF16161706E807F907C0F01216130642
:1008A000E407F50798F0621B730B840B950B39F482
:1008B0000A2661F0232B242B252B21F408950A26E8
:1008C00009F4A140A6958FEF811D811D089597F928
:1008D0009F6780E870E060E008959FEF80EC0895E6
:1008E00000240A941616170618060906089500240F
:1008F0000A9412161306140605060895092E039489
:10090000000C11F4882352F0BB0F40F4BF2B11F4FC
:1009100060FF04C06F5F7F4F8F4F9F4F089557FD5B
:100920009058440F551F59F05F3F71F04795880F5D
:1009300097FB991F61F09F3F79F0879508951216F4
:1009400013061406551FF2CF4695F1DF08C01616A0
:1009500017061806991FF1CF869571056105089451
:100960000895E894BB2766277727CB0197F9089568
:100970000E94430408F48FEF08950E94D0040C9461
:100980007E040E94700438F00E94770420F09523C2
:1009900011F00C9467040C946D0411240C94B204AF
:1009A0000E948F0470F3959FC1F3950F50E0551F7F
:1009B000629FF001729FBB27F00DB11D639FAA27B4
:1009C000F00DB11DAA1F649F6627B00DA11D661F03
:1009D000829F2227B00DA11D621F739FB00DA11D24
:1009E000621F839FA00D611D221F749F3327A00DDE
:1009F000611D231F849F600D211D822F762F6A2F7A
:100A000011249F5750409AF0F1F088234AF0EE0FDE
:100A1000FF1FBB1F661F771F881F91505040A9F70B
:100A20009E3F510580F00C9467040C94B2045F3F24
:100A3000E4F3983ED4F3869577956795B795F79547
:100A4000E7959F5FC1F7FE2B880F911D96958795BF
:080A500097F90895F894FFCF17
:100A58000000000200000000670000000000010024
:100A680000000501250149012501050105010501D0
:100A780025012501250105015D015D01050125010E
:100A8800490125010501050105010501250125018A
:100A9800050125014901F401F401FA00FA00BC023C
:100AA800F4019001F401BC02F401F401FA00FA0027
:100AB800BC0290012C01C8005E019001C8009001A1
:0C0AC800BC02E600F000FA00BC020100D5
:00000001FF
