:100000000C9446000C9465000C9465000C946500FB
:100010000C9465000C9465000C9465000C946500CC
:100020000C9465000C9465000C9465000C946500BC
:100030000C9465000C9465000C9465000C946500AC
:100040000C9465000C9465000C9465000C9465009C
:100050000C9465000C9465000C9465000C9465008C
:100060000C9465000C9465000C9465000C9465007C
:100070000C9465000C9465000C9465000C9465006C
:100080000C9465000C9465000C94650011241FBE4F
:10009000CFEFD0E4DEBFCDBF11E0A0E0B1E0E2E7FA
:1000A000F8E000E00BBF02C007900D92A232B1074A
:1000B000D9F721E0A2E2B1E001C01D92AA32B20755
:1000C000E1F70E9447020C9437040C940000CF9390
:1000D000DF9300D01F92CDB7DEB789837B836A831D
:1000E00089818A3031F48A819B81BC018DE00E9434
:1000F000670080EC90E0FC018081882F90E08072A6
:100100009927892BB1F386EC90E02981FC012083AB
:1001100080E090E00F900F900F90DF91CF910895C5
:100120000F931F93CF93DF9300D000D0CDB7DEB7EE
:1001300069837A838B839C8380912401909125012C
:10014000A0912601B09127019C01AD0169817A81BE
:100150008B819C810E946602882309F477C020E08D
:1001600030E0A90169817A818B819C810E946602BD
:10017000882351F481E990E021E930E0F901208100
:100180002870FC01208309C081E990E021E930E07A
:10019000F90120812360FC01208328E539E344E74D
:1001A0005FE369817A818B819C810E94660288234A
:1001B00044F488E990E02FEF3FEFFC013183208386
:1001C00034C020E034E244EF56E469817A818B81C7
:1001D0009C810E94C503181634F488E990E0FC0164
:1001E0001182108222C008E910E020E030E040E0F7
:1001F00053E469817A818B819C810E94CA03DC016E
:10020000CB019C01AD0160E074E284EF9AE40E94AE
:100210006B02DC01CB01BC01CD010E94DD02DC01DF
:10022000CB010197F8019183808384E990E0FC0180
:100230001182108289819A81AB81BC8180932401D3
:1002400090932501A0932601B093270100000F9001
:100250000F900F900F90DF91CF911F910F91089504
:10026000CF93DF93CDB7DEB780E990E020E4FC01C7
:10027000208381E990E02BE0FC01208360E070E0C6
:10028000CB010E9490000000DF91CF910895CF93A1
:10029000DF93CDB7DEB780E990E0FC01108281E901
:1002A00090E0FC0110820000DF91CF910895CF9380
:1002B000DF93CDB7DEB78091280190912901853079
:1002C000910548F48230910508F050C0009739F04C
:1002D000019761F06CC0059709F44FC068C081E0D8
:1002E00090E0909329018093280161C080E290E022
:1002F000FC018081882F90E08095909587709927E8
:10030000019739F482E090E09093290180932801CD
:100310004EC080E290E0FC018081882F90E08095C3
:10032000909587709927029739F483E090E0909335
:100330002901809328013BC080E290E0FC0180818C
:10034000882F90E08095909587709927049739F4CD
:1003500084E090E0909329018093280128C081E0F7
:1003600090E0909329018093280121C085E090E0DE
:1003700090932901809328011AC080E290E0FC014B
:100380008081882F90E08095909587709927892BA0
:1003900039F481E090E0909329018093280106C010
:1003A00085E090E0909329018093280100008091DE
:1003B00028019091290182309105C1F08330910587
:1003C00030F4009709F45AC0019751F05CC08430B2
:1003D000910509F184309105A0F00597B1F153C062
:1003E00060E070E0CB010E9490004DC0809122013E
:1003F000873008F045C0809122018F5F80932201F1
:100400003FC0809122018823E9F18091220181502F
:100410008093220137C080912001882339F00E9407
:100420003001809123018093220106C00E94470180
:1004300080912201809323019091200181E09923F2
:1004400009F080E0809320011EC080912201882F56
:1004500090E0880F991F825F9E4FFC0180819181FF
:10046000CC01A0E0B0E0BC01CD010E941303DC018F
:10047000CB01BC01CD010E94900005C0000003C06B
:10048000000001C000000000DF91CF910895CF93DC
:10049000DF93CDB7DEB781E290E0FC01108282E20B
:1004A00090E02FEFFC01208384E290E02FEFFC012D
:1004B000208385E290E0FC011082109229011092C5
:1004C00028010E9430010E945701FDCF0E94500375
:1004D00008F481E008950E947F020C948B030E942F
:1004E000840358F00E947D0340F029F45F3F29F017
:1004F0000C94740351110C94BF030C947A030E9462
:100500009C0368F39923B1F3552391F3951B550B85
:10051000BB27AA2762177307840738F09F5F5F4FD6
:10052000220F331F441FAA1FA9F335D00E2E3AF015
:10053000E0E832D091505040E695001CCAF72BD02D
:10054000FE2F29D0660F771F881FBB1F261737077E
:100550004807AB07B0E809F0BB0B802DBF01FF27B0
:1005600093585F4F3AF09E3F510578F00C94740316
:100570000C94BF035F3FE4F3983ED4F386957795E0
:100580006795B795F7959F5FC9F7880F911D969569
:10059000879597F90895E1E0660F771F881FBB1FC5
:1005A000621773078407BA0720F0621B730B840B72
:1005B000BA0BEE1F88F7E09508950E94E402689454
:1005C000B1110C94BF0308950E94A40388F09F57B3
:1005D00098F0B92F9927B751B0F0E1F0660F771F67
:1005E000881F991F1AF0BA95C9F714C0B13091F05D
:1005F0000E94BE03B1E008950C94BE03672F782FCC
:100600008827B85F39F0B93FCCF386957795679521
:10061000B395D9F73EF490958095709561957F4F8D
:100620008F4F9F4F0895E89409C097FB3EF4909533
:100630008095709561957F4F8F4F9F4F9923A9F0BB
:10064000F92F96E9BB279395F6958795779567954A
:10065000B795F111F8CFFAF4BB0F11F460FF1BC08E
:100660006F5F7F4F8F4F9F4F16C0882311F096E921
:1006700011C0772321F09EE8872F762F05C06623CF
:1006800071F096E8862F70E060E02AF09A95660F88
:10069000771F881FDAF7880F9695879597F9089541
:1006A000990F0008550FAA0BE0E8FEEF1616170683
:1006B000E807F907C0F012161306E407F50798F0EB
:1006C000621B730B840B950B39F40A2661F0232B04
:1006D000242B252B21F408950A2609F4A140A69580
:1006E0008FEF811D811D089597F99F6780E870E065
:1006F00060E008959FEF80EC089500240A94161698
:10070000170618060906089500240A9412161306FF
:10071000140605060895092E0394000C11F488238D
:1007200052F0BB0F40F4BF2B11F460FF04C06F5FA9
:100730007F4F8F4F9F4F089557FD9058440F551F7F
:1007400059F05F3F71F04795880F97FB991F61F053
:100750009F3F79F087950895121613061406551FCA
:10076000F2CF4695F1DF08C0161617061806991F36
:10077000F1CF86957105610508940895E894BB272B
:1007800066277727CB0197F908950E94500308F454
:100790008FEF08950E94DD030C948B030E947D036C
:1007A00038F00E94840320F0952311F00C94740318
:1007B0000C947A0311240C94BF030E949C0370F3E1
:1007C000959FC1F3950F50E0551F629FF001729FF6
:1007D000BB27F00DB11D639FAA27F00DB11DAA1F05
:1007E000649F6627B00DA11D661F829F2227B00D52
:1007F000A11D621F739FB00DA11D621F839FA00DDD
:10080000611D221F749F3327A00D611D231F849F2C
:10081000600D211D822F762F6A2F11249F57504083
:100820009AF0F1F088234AF0EE0FFF1FBB1F661FFE
:10083000771F881F91505040A9F79E3F510580F0C7
:100840000C9474030C94BF035F3FE4F3983ED4F31D
:10085000869577956795B795F795E7959F5FC1F76B
:10086000FE2B880F911D9695879597F90895F8941A
:02087000FFCFB8
:100872000000000200000000670000000000050107
:10088200250149015D018801B801ED010B0200005B
:02089200010063
:00000001FF
