:100000000C9446000C9465000C9465000C946500FB
:100010000C9465000C9465000C9465000C946500CC
:100020000C9465000C9465000C9465000C946500BC
:100030000C9465000C94D9010C9465000C94650037
:100040000C9465000C9465000C9465000C9465009C
:100050000C9465000C9465000C9465000C9465008C
:100060000C9465000C9465000C9465000C9465007C
:100070000C9465000C9465000C9465000C9465006C
:100080000C9465000C9465000C94650011241FBE4F
:10009000CFEFD0E4DEBFCDBF11E0A0E0B1E0E2E4FD
:1000A000F9E000E00BBF02C007900D92AA31B10742
:1000B000D9F721E0AAE1B1E001C01D92A432B20754
:1000C000E1F70E9463040C949F040C940000CF930A
:1000D000DF93CDB7DEB781E00E948E000000DF9194
:1000E000CF910895CF93DF93CDB7DEB784E690E04C
:1000F0000E94320188E30E948E0086E00E948E00FA
:100100008FE00E948E0081E00E948E008AE090E0E5
:100110000E9432010000DF91CF910895CF93DF93C9
:100120001F92CDB7DEB789838BE290E02BE230E0FF
:10013000F90120812F7BFC01208388E290E0298156
:10014000FC0120838BE290E02BE230E0F90120817A
:100150002068FC01208300008BE290E02BE230E07D
:10016000F90120812F77FC01208382E090E00E943A
:10017000320100000F90DF91CF910895CF93DF936C
:100180001F92CDB7DEB789838BE290E02BE230E09F
:10019000F90120812064FC01208388E290E029811C
:1001A000FC0120838BE290E02BE230E0F90120811A
:1001B0002068FC01208300008BE290E02BE230E01D
:1001C000F90120812F77FC01208381E090E00E94DB
:1001D000320100000F90DF91CF910895CF93DF930C
:1001E00000D000D0CDB7DEB78A837C836B830E94BA
:1001F00067008A81898311C0898191E0980F998372
:100200000E941B018B819C819C012F5F3F4F3C838F
:100210002B83FC0180810E94BE008B819C81FC01AC
:100220008081882349F700000F900F900F900F9066
:10023000DF91CF910895CF93DF931F92CDB7DEB7B3
:1002400089838981813128F4898181580E948E00B7
:1002500004C0898181550E948E0000000F90DF91BB
:10026000CF910895CF93DF9300D000D000D0CDB7C9
:10027000DEB79E838D831A82198213C01C821B8273
:1002800006C000008B819C8101969C838B838B81AF
:100290009C8187309340ACF389819A8101969A833F
:1002A000898329813A818D819E812817390734F30A
:1002B000000026960FB6F894DEBF0FBECDBFDF91CB
:1002C000CF910895CF93DF9300D01F92CDB7DEB7C3
:1002D00089837B836A8389818A3031F48A819B8117
:1002E000BC018DE00E94620180EC90E0FC01808105
:1002F000882F90E080729927892BB1F386EC90E0EB
:100300002981FC01208380E090E00F900F900F90F6
:10031000DF91CF910895CF93DF93CDB7DEB781E81A
:1003200090E02BE0FC01208388E890E02DE730E0AE
:10033000FC01318320838FE690E022E0FC012083E2
:1003400084E890E0FC011182108280910E0190916E
:100350000F01A0911001B091110180931B019093A6
:100360001C01A0931D01B0931E018FE590E02FE5C5
:1003700030E0F90120812068FC0120830000DF913A
:10038000CF910895CF93DF93CDB7DEB781E890E0AA
:10039000FC0110820000DF91CF910895CF93DF938D
:1003A000CDB7DEB781E080931A010000DF91CF91D5
:1003B00008951F920F9200905F000F9211240090F9
:1003C0005B000F922F933F934F935F936F937F93B5
:1003D0008F939F93AF93BF93EF93FF93CF93DF934D
:1003E000CDB7DEB780911B0190911C01A0911D013A
:1003F000B0911E010197A109B10980931B0190934F
:100400001C01A0931D01B0931E0180911B019091CE
:100410001C01A0911D01B0911E01892B8A2B8B2BF1
:1004200091F40E94CE0180910E0190910F01A09154
:100430001001B091110180931B0190931C01A093B6
:100440001D01B0931E010000DF91CF91FF91EF914C
:10045000BF91AF919F918F917F916F915F914F91DC
:100460003F912F910F9000925B000F9000925F00E0
:100470000F901F901895CF93DF9300D000D0CDB789
:10048000DEB769837A838B839C8389819A81AB8170
:10049000BC8180930E0190930F01A0931001B09343
:1004A000110180910E0190910F01A0911001B09166
:1004B000110180931B0190931C01A0931D01B09327
:1004C0001E0100000F900F900F900F90DF91CF91C1
:1004D0000895CF93DF93CDB7DEB78091220190913D
:1004E000230182309105A9F18330910528F400970A
:1004F00079F00197A1F0DDC18430910509F47AC14A
:100500008430910508F4E0C0059709F48BC1D1C18E
:1005100081E090E09093230180932201D0C181E09B
:10052000809321011092200185E080931F0185E2D4
:1005300090E021E0FC01208381E00E941B0185E323
:100540000E94BE0082E090E09093230180932201FC
:10055000B6C180E290E0FC018081882F90E081703C
:100560009927892B29F0809120018F5F80932001AA
:1005700080E290E0FC018081882F90E081709927D3
:10058000892B09F047C080912001882309F442C0DB
:1005900085E290E0FC018081813031F085E290E0DD
:1005A000FC018081843069F480911F018150809327
:1005B0001F0181E00E941B0180911F01805D0E944C
:1005C000BE0085E290E0FC0180818230E1F4809100
:1005D0001F018F5F80931F0180911F01893058F0A8
:1005E00081E00E941B010E94670062E171E081E0EE
:1005F0000E94EE0008C081E00E941B0180911F0153
:10060000805D0E94BE0084E090E09093230180937F
:10061000220154C080912101882399F485E290E061
:10062000FC01108282E090E09093230180932201EC
:1006300081E00E941B0180911F01805D0E94BE002D
:100640003DC080912101813011F585E290E022E0EA
:10065000FC01208382E090E09093230180932201AB
:1006600080911F01893050F081E00E941B010E949F
:10067000670062E171E081E00E94EE0081E00E948B
:100680001B0180911F01805D0E94BE0017C08091F8
:100690002101823099F481E00E941B0180911F01A9
:1006A000805D0E94BE0085E290E024E0FC01208392
:1006B00083E090E0909323018093220180912101B7
:1006C0008F5F80932101FBC080E290E0FC0180817C
:1006D000882F90E081709927892B29F08091200143
:1006E0008F5F8093200180E290E0FC018081882F61
:1006F00090E081709927892B09F047C080912001F3
:10070000882309F442C085E290E0FC0180818130B9
:1007100031F085E290E0FC018081843069F48091C1
:100720001F01815080931F0181E00E941B01809175
:100730001F01805D0E94BE0085E290E0FC01808187
:100740008230E1F480911F018F5F80931F018091BF
:100750001F01893058F081E00E941B010E94670050
:1007600062E171E081E00E94EE00A9C081E00E9498
:100770001B0180911F01805D0E94BE0084E090E01B
:1007800090932301809322012FC080912101833017
:10079000D1F485E290E022E0FC01208383E090E048
:1007A000909323018093220180911F018930E0F012
:1007B00081E00E941B010E94670062E171E081E01C
:1007C0000E94EE0011C080912101843069F41092E2
:1007D000210185E290E021E0FC01208382E090E0AD
:1007E0009093230180932201809121018F5F809358
:1007F000210165C080E290E0FC018081882F90E0BB
:1008000081709927892B39F484E090E0909323013B
:100810008093220154C085E090E09093230180935F
:1008200022014DC080E290E0FC018081882F90E0A1
:1008300081709927892B09F041C080911F0189306F
:10084000D8F081E0809321011092200185E290E0B0
:1008500021E0FC01208385E080931F010E94670056
:1008600081E00E941B0185E30E94BE0082E090E0CF
:10087000909323018093220180911F018930F1F030
:1008800081E0809321011092200185E290E021E037
:10089000FC01208381E00E941B0180911F01805D8B
:1008A0000E94BE0082E090E0909323018093220199
:1008B00005C0109223011092220101C00000000027
:1008C000DF91CF910895CF93DF93CDB7DEB781E26B
:1008D00090E0FC01108282E290E02FEFFC01208387
:1008E00084E290E02FEFFC01208385E290E0FC01A0
:1008F000108287E290E02FEFFC01208388E290E0F5
:10090000FC0110828AE290E02FEFFC01208388E254
:1009100090E0FC0110820E9472006CE271E080E0C5
:1009200090E00E943B020E948B010E94690200003D
:1009300080911A018823E1F310921A01F6CFF894FE
:02094000FFCFE7
:10094200000000020000000062010000000001003F
:0A095200000057696E6E65722121E6
:00000001FF
