:100000000C9446000C9465000C9465000C946500FB
:100010000C9465000C9465000C9465000C946500CC
:100020000C9465000C9465000C9465000C946500BC
:100030000C9465000C94B0010C9465000C94650060
:100040000C9465000C9465000C9465000C9465009C
:100050000C9465000C9465000C9465000C9465008C
:100060000C9465000C9465000C9465000C9465007C
:100070000C9465000C9465000C9465000C9465006C
:100080000C9465000C9465000C94650011241FBE4F
:10009000CFEFD0E4DEBFCDBF11E0A0E0B1E0ECE3F4
:1000A000F7E000E00BBF02C007900D92A831B10746
:1000B000D9F721E0A8E1B1E001C01D92A232B20758
:1000C000E1F70E943A030C949C030C940000CF9338
:1000D000DF93CDB7DEB781E00E948E000000DF9194
:1000E000CF910895CF93DF93CDB7DEB784E690E04C
:1000F0000E94320188E30E948E0086E00E948E00FA
:100100008FE00E948E0081E00E948E008AE090E0E5
:100110000E9432010000DF91CF910895CF93DF93C9
:100120001F92CDB7DEB789838BE290E02BE230E0FF
:10013000F90120812F7BFC01208388E290E0298156
:10014000FC0120838BE290E02BE230E0F90120817A
:100150002068FC01208300008BE290E02BE230E07D
:10016000F90120812F77FC01208382E090E00E943A
:10017000320100000F90DF91CF910895CF93DF936C
:100180001F92CDB7DEB789838BE290E02BE230E09F
:10019000F90120812064FC01208388E290E029811C
:1001A000FC0120838BE290E02BE230E0F90120811A
:1001B0002068FC01208300008BE290E02BE230E01D
:1001C000F90120812F77FC01208381E090E00E94DB
:1001D000320100000F90DF91CF910895CF93DF930C
:1001E00000D000D0CDB7DEB78A837C836B830E94BA
:1001F00067008A81898311C0898191E0980F998372
:100200000E941B018B819C819C012F5F3F4F3C838F
:100210002B83FC0180810E94BE008B819C81FC01AC
:100220008081882349F700000F900F900F900F9066
:10023000DF91CF910895CF93DF931F92CDB7DEB7B3
:1002400089838981813128F4898181580E948E00B7
:1002500004C0898181550E948E0000000F90DF91BB
:10026000CF910895CF93DF9300D000D000D0CDB7C9
:10027000DEB79E838D831A82198213C01C821B8273
:1002800006C000008B819C8101969C838B838B81AF
:100290009C8187309340ACF389819A8101969A833F
:1002A000898329813A818D819E812817390734F30A
:1002B000000026960FB6F894DEBF0FBECDBFDF91CB
:1002C000CF910895CF93DF93CDB7DEB781E890E06B
:1002D0002BE0FC01208388E890E02DE730E0FC0172
:1002E000318320838FE690E022E0FC01208384E8C4
:1002F00090E0FC0111821082809100019091010137
:10030000A0910201B09103018093190190931A0109
:10031000A0931B01B0931C018FE590E02FE530E026
:10032000F90120812068FC0120830000DF91CF913A
:100330000895CF93DF93CDB7DEB781E890E0FC015D
:1003400010820000DF91CF910895CF93DF93CDB756
:10035000DEB781E0809318010000DF91CF9108950E
:100360001F920F9200905F000F92112400905B008B
:100370000F922F933F934F935F936F937F938F933E
:100380009F93AF93BF93EF93FF93CF93DF93CDB73B
:10039000DEB78091190190911A01A0911B01B091D3
:1003A0001C010197A109B1098093190190931A01C9
:1003B000A0931B01B0931C018091190190911A0127
:1003C000A0911B01B0911C01892B8A2B8B2B91F4DE
:1003D0000E94A5018091000190910101A09102016C
:1003E000B09103018093190190931A01A0931B010E
:1003F000B0931C010000DF91CF91FF91EF91BF916D
:10040000AF919F918F917F916F915F914F913F91AC
:100410002F910F9000925B000F9000925F000F9061
:100420001F901895CF93DF9300D000D0CDB7DEB7E3
:1004300069837A838B839C8389819A81AB81BC8118
:100440008093000190930101A0930201B0930301F6
:100450008091000190910101A0910201B0910301EE
:100460008093190190931A01A0931B01B0931C0172
:1004700000000F900F900F900F90DF91CF91089593
:10048000CF93DF93CDB7DEB780911F01909120010C
:100490008230910571F18330910528F4009751F075
:1004A000019779F09AC083309105D9F1049709F446
:1004B00050C093C081E090E09093200180931F0191
:1004C00096C080E290E0FC018081882F90E08170EE
:1004D0009927892B39F484E090E090932001809350
:1004E0001F0185C082E090E09093200180931F015E
:1004F0007EC080E290E0FC018081882F90E08170D6
:100500009927892B39F484E090E09093200180931F
:100510001F016DC083E090E09093200180931F0144
:1005200066C080E290E0FC018081882F90E08170BD
:100530009927892B39F484E090E0909320018093EF
:100540001F0155C081E090E09093200180931F012E
:100550004EC080E290E0FC018081882F90E08170A5
:100560009927892B99F180912101882F90E0823081
:10057000910589F083309105D1F0019721F581E053
:1005800090E09093200180931F0180911E018E5F67
:1005900080931E0118C082E090E090932001809328
:1005A0001F0180911E018E5F80931E010CC083E0AD
:1005B00090E09093200180931F0180911E018E5F37
:1005C00080931E0100001092210111C084E090E090
:1005D0009093200180931F010AC080911E018150D9
:1005E00080931E011092200110921F010000809143
:1005F0001F019091200182309105F9F0833091051F
:1006000028F4009749F0019789F02AC083309105BA
:10061000D9F0049701F124C080911E01882329F1AB
:1006200080911E01815080931E011FC081E0809344
:100630001D0181E08093210119C082E080931D019A
:1006400082E08093210112C084E080931D0183E049
:10065000809321010BC080911D0180931D0106C074
:100660001092200110921F0101C000000000DF91D4
:10067000CF910895CF93DF93CDB7DEB781E290E0BD
:10068000FC01108282E290E02FEFFC01208387E2E0
:1006900090E02FEFFC01208388E290E0FC011082C3
:1006A0008AE290E02FEFFC0120838BE290E0FC01D6
:1006B000108284E290E02FEFFC01208385E290E03D
:1006C000FC0110821092200110921F016CE271E077
:1006D00080E090E00E9412020E9462010E9472007B
:1006E00081E00E941B0185E080931E010E9467004B
:1006F0000E94400280911E01893030F064E071E078
:1007000081E00E94EE0013C080911E01805D0E9476
:10071000BE000000809118018823E1F310921801B7
:1007200085E290E020911D01FC012083DFCF81E074
:0C07300090E0DF91CF910895F894FFCF86
:10073C0001000000594F5520574F4E202856494371
:08074C00544F5259292100000D
:00000001FF
