:100000000C9454000C9473000C9473000C947300C3
:100010000C9473000C9473000C9473000C94730094
:100020000C9473000C9473000C9473000C94730084
:100030000C9473000C94BE010C9473000C94730028
:100040000C9473000C9473000C9473000C94730064
:100050000C9473000C9473000C9473000C94730054
:100060000C9473000C9473000C9473000C94730044
:100070000C9473000C9473000C9473000C94730034
:100080000C9473000C9473000C9473006802780253
:100090009002A802C002C702DF0263031D0323030C
:1000A00029032F036303630311241FBECFEFD0E4A2
:1000B000DEBFCDBF11E0A0E0B1E0E8E6F7E000E090
:1000C0000BBF02C007900D92AC30B107D9F721E009
:1000D000ACE0B1E001C01D92A431B207E1F70E948B
:1000E00068030C94B2030C940000CF93DF93CDB758
:1000F000DEB781E00E949C000000DF91CF9108955F
:10010000CF93DF93CDB7DEB784E690E00E94400145
:1001100088E30E949C0086E00E949C008FE00E9481
:100120009C0081E00E949C008AE090E00E944001D7
:100130000000DF91CF910895CF93DF931F92CDB749
:10014000DEB789838BE290E02BE230E0F901208179
:100150002F7BFC01208388E290E02981FC01208331
:100160008BE290E02BE230E0F90120812068FC0175
:10017000208300008BE290E02BE230E0F901208147
:100180002F77FC01208382E090E00E944001000074
:100190000F90DF91CF910895CF93DF931F92CDB74A
:1001A000DEB789838BE290E02BE230E0F901208119
:1001B0002064FC01208388E290E02981FC012083F7
:1001C0008BE290E02BE230E0F90120812068FC0115
:1001D000208300008BE290E02BE230E0F9012081E7
:1001E0002F77FC01208381E090E00E944001000015
:1001F0000F90DF91CF910895CF93DF9300D000D07F
:10020000CDB7DEB78A837C836B830E9475008A81B9
:10021000898311C0898191E0980F99830E942901F7
:100220008B819C819C012F5F3F4F3C832B83FC0182
:1002300080810E94CC008B819C81FC01808188237D
:1002400049F700000F900F900F900F90DF91CF9122
:100250000895CF93DF931F92CDB7DEB7898389814D
:10026000813128F4898181580E949C0004C08981D1
:1002700081550E949C0000000F90DF91CF9108955E
:10028000CF93DF9300D000D000D0CDB7DEB79E83F0
:100290008D831A82198213C01C821B8206C0000043
:1002A0008B819C8101969C838B838B819C81873081
:1002B0009340ACF389819A8101969A83898329813D
:1002C0003A818D819E812817390734F300002696E4
:1002D0000FB6F894DEBF0FBECDBFDF91CF9108956A
:1002E000CF93DF93CDB7DEB781E890E02BE0FC0140
:1002F000208388E890E02DE730E0FC013183208303
:100300008FE690E022E0FC01208384E890E0FC018D
:10031000118210828091000190910101A09102014F
:10032000B091030180930D0190930E01A0930F01F2
:10033000B09310018FE590E02FE530E0F9012081C6
:100340002068FC0120830000DF91CF910895CF93B6
:10035000DF93CDB7DEB781E890E0FC0110820000AA
:10036000DF91CF910895CF93DF93CDB7DEB781E0D2
:1003700080930C010000DF91CF9108951F920F929E
:1003800000905F000F92112400905B000F922F935A
:100390003F934F935F936F937F938F939F93AF930D
:1003A000BF93EF93FF93CF93DF93CDB7DEB78091E9
:1003B0000D0190910E01A0910F01B09110010197D4
:1003C000A109B10980930D0190930E01A0930F0133
:1003D000B093100180910D0190910E01A0910F0139
:1003E000B0911001892B8A2B8B2B91F40E94B301C1
:1003F0008091000190910101A0910201B09103014F
:1004000080930D0190930E01A0930F01B093100102
:100410000000DF91CF91FF91EF91BF91AF919F913C
:100420008F917F916F915F914F913F912F910F909D
:1004300000925B000F9000925F000F901F90189544
:10044000CF93DF9300D000D0CDB7DEB769837A8336
:100450008B839C8389819A81AB81BC8180930001CD
:1004600090930101A0930201B093030180910001D8
:1004700090910101A0910201B091030180930D01BF
:1004800090930E01A0930F01B093100100000F9004
:100490000F900F900F90DF91CF910895CF93DF933E
:1004A000CDB7DEB78091120190911301CC01A0E08D
:1004B000B0E040E050E026E030E0841B950B2817C8
:1004C000390708F4A3C08A5B9F4FFC010C94A90371
:1004D00085E08093110181E00E94290185E30E945B
:1004E000CC0081E090E090931301809312018FC0C3
:1004F00080E290E0FC018081882F90E08170992754
:10050000892B39F484E090E09093130180931201D9
:100510007EC082E090E0909313018093120177C037
:1005200080E290E0FC018081882F90E08170992723
:10053000892B39F484E090E09093130180931201A9
:1005400066C083E090E090931301809312015FC036
:1005500080E290E0FC018081882F90E081709927F3
:10056000892B39F484E090E0909313018093120179
:100570004EC081E090E0909313018093120147C038
:1005800085E090E0909313018093120140C080E2D7
:1005900090E0FC018081882F90E081709927892B61
:1005A00039F485E090E090931301809312012FC0FD
:1005B00086E090E0909313018093120128C080E2BE
:1005C00090E0FC018081882F90E081709927892B31
:1005D000B1F480911101893058F085E080931101C8
:1005E0000E94750081E00E94290185E30E94CC00F1
:1005F00081E090E0909313018093120108C086E09F
:1006000090E0909313018093120101C0000080914B
:10061000120190911301CC01A0E0B0E040E050E065
:1006200026E030E0841B950B2817390708F449C0F1
:10063000835B9F4FFC010C94A90385E290E021E0CD
:10064000FC01208341C085E290E022E0FC01208390
:100650003BC085E290E024E0FC01208335C085E2C8
:1006600090E0FC0180818230C1F4809111018F5FA4
:100670008093110180911101893030F064E071E0C4
:1006800081E00E94FC0020C081E00E94290180914D
:100690001101805D0E94CC0017C080911101815032
:1006A0008093110180911101882311F4109211019E
:1006B00081E00E94290180911101805D0E94CC009F
:1006C00003C0000001C000000000DF91CF91089539
:1006D000CF93DF93CDB7DEB781E290E0FC011082CB
:1006E00082E290E02FEFFC01208384E290E02FEF84
:1006F000FC01208385E290E025E0FC01208387E275
:1007000090E02FEFFC01208388E290E0FC01108252
:100710008AE290E02FEFFC0120838BE290E0FC0165
:1007200010820E9480006EE170E080E090E00E9404
:1007300020020E94700110921301109212010E9477
:100740004E02000080910C018823E1F310920C010D
:10075000F6CFEE0FFF1F0024001C0BBE0790F69192
:08076000E02D0994F894FFCF8D
:0C0768000100000057696E6E65722100F0
:00000001FF
