:100000000C948B000C94AA000C94AA000C94AA00E7
:100010000C94AA000C94AA000C94AA000C94AA00B8
:100020000C94AA000C94AA000C94AA000C94AA00A8
:100030000C94AA000C94D4030C94AA000C94AA006B
:100040000C94AA000C94AA000C94AA000C94AA0088
:100050000C94AA000C94AA000C94AA000C94AA0078
:100060000C94AA000C94AA000C94AA000C94AA0068
:100070000C94AA000C94AA000C94AA000C94AA0058
:100080000C94AA000C94AA000C94AA0020051C054C
:100090001C051C051C051C051C051C051C051C0558
:1000A0001C051C051C051C051C051C051C051C0548
:1000B0001C051C051C051C051C051C051C051C0538
:1000C0001C051C051C051C051C051C051C051C0528
:1000D0001C0510051C051C051C051C051C051C0524
:1000E000F9041C051C051C051C051C0505055D0403
:1000F0006904750481048D049904A504B104BD0448
:100100001C051C051C051C051C051C051C05C9043B
:10011000D504E104ED0411241FBECFEFD0E4DEBF0F
:10012000CDBF11E0A0E0B1E0E2E1FDE000E00BBFF7
:1001300002C007900D92A231B107D9F721E0A2E1E8
:10014000B1E001C01D92A632B207E1F70E9431056D
:100150000C9487060C940000CF93DF9300D01F927D
:10016000CDB7DEB789837B836A8389818A3031F496
:100170008A819B81BC018DE00E94AC0080EC90E004
:10018000FC018081882F90E080729927892BB1F340
:1001900086EC90E02981FC01208380E090E00F90C4
:1001A0000F900F90DF91CF910895CF93DF9300D000
:1001B0001F92CDB7DEB789836A834B838B818823F7
:1001C00071F08A81282F30E081E090E002C0880F32
:1001D000991F2A95E2F7982F8981892B0EC08A8171
:1001E000282F30E081E090E002C0880F991F2A9507
:1001F000E2F7982F9095898189230F900F900F90A7
:10020000DF91CF910895CF93DF9300D0CDB7DEB7C4
:1002100089836A838A81282F30E081E090E002C0E0
:10022000880F991F2A95E2F7982F898189230F90CB
:100230000F90DF91CF910895CF93DF93CDB7DEB7C5
:1002400081E00E9443010000DF91CF910895CF9398
:10025000DF93CDB7DEB784E690E00E94E70188E344
:100260000E94430186E00E9443018FE00E94430107
:1002700081E00E9443018AE090E00E94E7010000D3
:10028000DF91CF910895CF93DF931F92CDB7DEB763
:1002900089838BE290E02BE230E0F90120812F7B13
:1002A000FC01208385E290E02981FC0120838BE220
:1002B00090E02BE230E0F90120812068FC012083EE
:1002C00000008BE290E02BE230E0F90120812F77F3
:1002D000FC01208382E090E00E94E70100000F9083
:1002E000DF91CF910895CF93DF931F92CDB7DEB703
:1002F00089838BE290E02BE230E0F90120812064D9
:10030000FC01208385E290E02981FC0120838BE2BF
:1003100090E02BE230E0F90120812068FC0120838D
:1003200000008BE290E02BE230E0F90120812F7792
:10033000FC01208381E090E00E94E70100000F9023
:10034000DF91CF910895CF93DF9300D000D0CDB748
:10035000DEB78A837C836B830E941C018A81898338
:1003600011C0898191E0980F99830E94D0018B81FF
:100370009C819C012F5F3F4F3C832B83FC0180813C
:100380000E9473018B819C81FC018081882349F745
:1003900000000F900F900F900F90DF91CF91089574
:1003A000CF93DF931F92CDB7DEB7898389818131E7
:1003B00028F4898181580E94430104C089818155B4
:1003C0000E94430100000F90DF91CF910895CF93D9
:1003D000DF9300D000D000D0CDB7DEB79E838D83F1
:1003E0001A82198213C01C821B8206C000008B81F6
:1003F0009C8101969C838B838B819C818730934069
:10040000ACF389819A8101969A83898329813A8103
:100410008D819E812817390734F3000026960FB688
:10042000F894DEBF0FBECDBFDF91CF9108950F933B
:100430001F93CF93DF93CDB7DEB708E210E040E023
:1004400064E08FEF0E94D500F8018083000086E20F
:1004500090E0FC018081809560E00E940301882388
:1004600011F081E3D3C086E290E0FC0180818095A9
:1004700061E00E940301882311F084E3C7C086E293
:1004800090E0FC018081809562E00E940301882356
:1004900011F087E3BBC086E290E0FC01808180958B
:1004A00063E00E940301882311F08AE2AFC008E2F2
:1004B00010E040E065E08FEF0E94D500F8018083F6
:1004C000000086E290E0FC018081809560E00E945F
:1004D0000301882311F082E399C086E290E0FC01D9
:1004E0008081809561E00E940301882311F085E3FB
:1004F0008DC086E290E0FC018081809562E00E94E0
:100500000301882311F088E381C086E290E0FC01BA
:100510008081809563E00E940301882311F080E3CD
:1005200075C008E210E040E066E08FEF0E94D50061
:10053000F8018083000086E290E0FC0180818095D4
:1005400060E00E940301882311F083E35FC086E22C
:1005500090E0FC018081809561E00E940301882386
:1005600011F086E353C086E290E0FC018081809523
:1005700062E00E940301882311F089E347C086E20C
:1005800090E0FC018081809563E00E940301882354
:1005900011F083E23BC008E210E040E067E08FEF3B
:1005A0000E94D500F8018083000086E290E0FC0103
:1005B0008081809560E00E940301882311F081E42E
:1005C00025C086E290E0FC018081809561E00E9478
:1005D0000301882311F082E419C086E290E0FC0157
:1005E0008081809562E00E940301882311F083E4FA
:1005F0000DC086E290E0FC018081809563E00E945E
:100600000301882311F084E401C080E0DF91CF91E1
:100610001F910F910895CF93DF93CDB7DEB72C973D
:100620000FB6F894DEBF0FBECDBF6D837E838F8380
:10063000988729873A874B875C878D819E81AF8118
:10064000B88529853A854B855C85BC01CD010E9422
:100650005C06DC01CB0189839A83AB83BC838981EF
:100660009A81AB81BC81892B8A2B8B2B29F48985BC
:100670009A85AB85BC8511C089859A85AB85BC857B
:100680008D839E83AF83B88789819A81AB81BC813A
:1006900089879A87AB87BC87D0CFBC01CD012C96C8
:1006A0000FB6F894DEBF0FBECDBFDF91CF91089596
:1006B000CF93DF9300D000D0CDB7DEB769837A83C4
:1006C0008B839C8389819A81AB81BC8180930E014D
:1006D00090930F01A0931001B093110180910E012E
:1006E00090910F01A0911001B0911101809313011D
:1006F00090931401A0931501B093160100000F9080
:100700000F900F900F90DF91CF910895CF93DF93CB
:10071000CDB7DEB781E890E02BE0FC01208388E8CC
:1007200090E02DE730E0FC01318320838FE690E0FC
:1007300022E0FC01208384E890E0FC011182108219
:1007400080910E0190910F01A0911001B0911101C3
:100750008093130190931401A0931501B093160197
:100760008FE590E02FE530E0F90120812068FC0161
:1007700020830000DF91CF910895CF93DF93CDB711
:10078000DEB781E890E0FC0110820000DF91CF919C
:100790000895CF93DF93CDB7DEB781E08093120148
:1007A0000000DF91CF9108951F920F9200905F009B
:1007B0000F92112400905B000F922F933F934F9361
:1007C0005F936F937F938F939F93AF93BF93EF93B9
:1007D000FF93CF93DF93CDB7DEB780911301909154
:1007E0001401A0911501B09116010197A109B10959
:1007F0008093130190931401A0931501B0931601F7
:100800008091130190911401A0911501B0911601EE
:10081000892B8A2B8B2B91F40E94C90380910E01A6
:1008200090910F01A0911001B091110180931301DB
:1008300090931401A0931501B09316010000DF916D
:10084000CF91FF91EF91BF91AF919F918F917F9148
:100850006F915F914F913F912F910F9000925B00AC
:100860000F9000925F000F901F901895CF93DF9329
:1008700000D0CDB7DEB79A8389830E941702809398
:10088000250189819A81892B09F0E4C08091250195
:10089000882F90E0092E000CAA0BBB0B40E050E023
:1008A00024E430E0841B950B2817390708F4C4C0F2
:1008B0008A5B9F4FFC010C947E0681E080931701B8
:1008C00081E00E94D00180911701805D0E94730138
:1008D000B8C082E08093170181E00E94D00180912E
:1008E0001701805D0E947301ACC083E08093170103
:1008F00081E00E94D00180911701805D0E94730108
:10090000A0C084E08093170181E00E94D001809113
:100910001701805D0E94730194C085E080931701E8
:1009200081E00E94D00180911701805D0E947301D7
:1009300088C086E08093170181E00E94D0018091F9
:100940001701805D0E9473017CC087E080931701CE
:1009500081E00E94D00180911701805D0E947301A7
:1009600070C088E08093170181E00E94D0018091DF
:100970001701805D0E94730164C089E080931701B4
:1009800081E00E94D00180911701805D0E94730177
:1009900058C08AE08093170181E00E94D0018091C5
:1009A0001701895C0E9473014CC08BE08093170192
:1009B00081E00E94D00180911701895C0E9473013F
:1009C00040C08CE08093170181E00E94D0018091AB
:1009D0001701895C0E94730134C08DE08093170178
:1009E00081E00E94D00180911701895C0E9473010F
:1009F00028C08EE08093170181E00E94D001809191
:100A00001701845E0E9473011CC01092170181E0DF
:100A10000E94D00180911701805D0E94730111C076
:100A20008FE08093170181E00E94D001809117012F
:100A30008C5E0E94730105C08BE18093170101C099
:100A400000001A82198285E290E020911701FC01D2
:100A50002083000089819A810F900F90DF91CF91C0
:100A600008950F931F93CF93DF93CDB7DEB76297AF
:100A70000FB6F894DEBF0FBECDBF81E290E02FEF3E
:100A8000FC01208382E290E0FC01108284E290E08D
:100A90002FEFFC01208385E290E0FC01108287E2C9
:100AA00090E020EFFC01208388E290E02FE0FC0141
:100AB00020838AE290E02FEFFC0120838BE290E01C
:100AC000FC01108288EC90E0A0E0B0E08B839C8376
:100AD000AD83BE8382E090E0A0E0B0E08F83988792
:100AE000A987BA878B819C81AD81BE818B879C87CA
:100AF000AD87BE8788E191E09A8B898B81E090E099
:100B0000988B8F87109218018B859C85AD85BE854B
:100B10008093190190931A01A0931B01B0931C01BB
:100B20008B859C85AD85BE8580931D0190931E01AC
:100B3000A0931F01B093200186E394E090932201DB
:100B4000809321018F819885A985BA85BC01CD014B
:100B50000E9458030E9486030E9427011A8219826C
:100B60009BC089819A81880F991F9E012F5F3F4FFB
:100B7000820F931F4096FC0180819181FC012581A9
:100B800036814781508589819A81880F991FBE01DE
:100B90006F5F7F4F860F971F4096FC018081918188
:100BA000FC0181819281A381B481281739074A070A
:100BB0005B0708F445C089819A81880F991F9E01BF
:100BC0002F5F3F4F820F931F4096FC0100811181E0
:100BD00089819A81880F991F9E012F5F3F4F820F55
:100BE000931F4096FC0180819181FC012185328513
:100BF00089819A81880F991FAE014F5F5F4F840FE3
:100C0000951F4096FC0180819181FC018081082E16
:100C1000000C990BF9010995F801808389819A816B
:100C2000880F991F9E012F5F3F4F820F931F4096A1
:100C3000FC0180819181FC01158216821782108649
:100C400089819A81880F991F9E012F5F3F4F820FE4
:100C5000931F4096FC012081318189819A81880F00
:100C6000991FAE014F5F5F4F840F951F4096FC01A7
:100C700080819181FC0185819681A781B085019653
:100C8000A11DB11DF90185839683A783B087898152
:100C90009A8101969A83898329813A818F859889DF
:100CA0002817390708F45DCF0000809112018823CE
:100CB000E1F31092120152CFA1E21A2EAA1BBB1B24
:100CC000FD010DC0AA1FBB1FEE1FFF1FA217B30718
:100CD000E407F50720F0A21BB30BE40BF50B661F2E
:100CE000771F881F991F1A9469F7609570958095F2
:100CF00090959B01AC01BD01CF010895EE0FFF1F40
:100D00000024001C0BBE0790F691E02D0994F89486
:020D1000FFCF13
:100D12000000000200000000AC0000000000010022
:020D22000000CF
:00000001FF
