:100000000C9446000C9465000C9465000C946500FB
:100010000C9465000C9465000C9465000C946500CC
:100020000C9465000C9465000C9465000C946500BC
:100030000C9465000C94DE000C9465000C94650033
:100040000C9465000C9465000C9465000C9465009C
:100050000C9465000C9465000C9465000C9465008C
:100060000C9465000C9465000C9465000C9465007C
:100070000C9465000C9465000C9465000C9465006C
:100080000C9465000C9465000C94650011241FBE4F
:10009000CFEFD0E4DEBFCDBF11E0A0E0B1E0E4E7F8
:1000A000F4E000E00BBF02C007900D92A431B1074D
:1000B000D9F721E0A4E1B1E001C01D92A032B2075E
:1000C000E1F70E9409020C9438020C940000CF93CF
:1000D000DF9300D01F92CDB7DEB789837B836A831D
:1000E00089818A3031F48A819B81BC018DE00E9434
:1000F000670080EC90E0FC018081882F90E08072A6
:100100009927892BB1F386EC90E02981FC012083AB
:1001100080E090E00F900F900F90DF91CF910895C5
:10012000CF93DF93CDB7DEB781E890E02BE0FC0101
:10013000208388E890E02DE730E0FC0131832083C4
:100140008FE690E022E0FC01208384E890E0FC014F
:100150001182108280910E0190910F01A0911001E7
:10016000B09111018093150190931601A09317018E
:10017000B09318018FE590E02FE530E0F901208180
:100180002068FC0120830000DF91CF910895CF9378
:10019000DF93CDB7DEB781E890E0FC01108200006C
:1001A000DF91CF910895CF93DF93CDB7DEB781E094
:1001B000809314010000DF91CF9108951F920F9258
:1001C00000905F000F92112400905B000F922F931C
:1001D0003F934F935F936F937F938F939F93AF93CF
:1001E000BF93EF93FF93CF93DF93CDB7DEB78091AB
:1001F000150190911601A0911701B0911801019776
:10020000A109B1098093150190931601A0931701DC
:10021000B09318018091150190911601A0911701DA
:10022000B0911801892B8A2B8B2B91F40E94D3005B
:1002300080910E0190910F01A0911001B0911101D8
:100240008093150190931601A0931701B0931801A4
:100250000000DF91CF91FF91EF91BF91AF919F91FE
:100260008F917F916F915F914F913F912F910F905F
:1002700000925B000F9000925F000F901F90189506
:10028000CF93DF9300D000D0CDB7DEB769837A83F8
:100290008B839C8389819A81AB81BC8180930E0181
:1002A00090930F01A0931001B093110180910E0162
:1002B00090910F01A0911001B0911101809315014F
:1002C00090931601A0931701B093180100000F90AE
:1002D0000F900F900F90DF91CF910895CF93DF9300
:1002E000CDB7DEB780911A0190911B01009719F0EC
:1002F000019741F008C081E090E090931B0180934A
:100300001A0101C0000080911A0190911B01009711
:1003100019F1019709F023C080911901882321F474
:1003200081E0809319011AC080911901813021F474
:1003300082E08093190112C080911901823021F46A
:1003400084E0809319010AC080911901843031F44E
:1003500081E08093190102C0000001C0000000008C
:10036000DF91CF910895CF93DF93CDB7DEB7809122
:100370001E0190911F01009719F0019741F008C0EC
:1003800081E090E090931F0180931E0101C0000066
:1003900080911E0190911F01009761F0019709F073
:1003A0000AC09091120181E0992309F080E08093C6
:1003B000120101C000000000DF91CF910895CF939A
:1003C000DF93CDB7DEB780911C0190911D01892B81
:1003D00009F001C0000080911C0190911D01892B42
:1003E00009F013C085E290E020911201222F30E045
:1003F000220F331F220F331F220F331F322F209162
:100400001901232BFC01208300000000DF91CF9114
:100410000895CF93DF93CDB7DEB784E290E02FEF5E
:10042000FC01208385E290E0FC01108210921B0108
:1004300010921A0110921F0110921E0110921D01BC
:1004400010921C0168EE73E080E090E00E94400191
:100450000E9490000E946E010E94B3010E94DF0181
:100460000000809114018823E1F310921401F2CF6F
:04047000F894FFCF2E
:10047400000000020000000067000000000001000E
:040484000000010073
:00000001FF
