:100000000C9446000C9465000C9465000C946500FB
:100010000C9465000C9465000C9465000C946500CC
:100020000C9465000C9465000C9465000C946500BC
:100030000C9465000C94B5000C9465000C9465005C
:100040000C9465000C9465000C9465000C9465009C
:100050000C9465000C9465000C9465000C9465008C
:100060000C9465000C9465000C9465000C9465007C
:100070000C9465000C9465000C9465000C9465006C
:100080000C9465000C9465000C94650011241FBE4F
:10009000CFEFD0E4DEBFCDBF11E0A0E0B1E0ECE3F4
:1000A000F8E000E00BBF02C007900D92A431B10749
:1000B000D9F721E0A4E1B1E001C01D92A832B20756
:1000C000E1F70E946E010C941C040C940000CF9385
:1000D000DF93CDB7DEB781E890E02BE0FC01208311
:1000E00088E890E02DE730E0FC01318320838FE643
:1000F00090E022E0FC01208384E890E0FC01118282
:1001000010828091000190910101A0910201B091B3
:1001100003018093150190931601A0931701B093EA
:1001200018018FE590E02FE530E0F901208120688B
:10013000FC0120830000DF91CF910895CF93DF93DE
:10014000CDB7DEB781E890E0FC0110820000DF91BE
:10015000CF910895CF93DF93CDB7DEB781E0809341
:1001600014010000DF91CF9108951F920F9200902B
:100170005F000F92112400905B000F922F933F932A
:100180004F935F936F937F938F939F93AF93BF939F
:10019000EF93FF93CF93DF93CDB7DEB78091150137
:1001A00090911601A0911701B09118010197A10932
:1001B000B1098093150190931601A0931701B09394
:1001C00018018091150190911601A0911701B0912D
:1001D0001801892B8A2B8B2B91F40E94AA00809105
:1001E000000190910101A0910201B091030180935F
:1001F000150190931601A0931701B0931801000008
:10020000DF91CF91FF91EF91BF91AF919F918F912E
:100210007F916F915F914F913F912F910F9000923D
:100220005B000F9000925F000F901F901895CF9386
:10023000DF9300D000D0CDB7DEB769837A838B839C
:100240009C8389819A81AB81BC81809300019093CA
:100250000101A0930201B0930301809100019091EC
:100260000101A0910201B0910301809315019093C7
:100270001601A0931701B093180100000F900F9082
:100280000F900F90DF91CF910895CF93DF9300D01F
:100290001F92CDB7DEB789837B836A8389818A30D9
:1002A00031F48A819B81BC018DE00E94450180EC84
:1002B00090E0FC018081882F90E080729927892B43
:1002C000B1F386EC90E02981FC01208380E090E08E
:1002D0000F900F900F90DF91CF910895CF93DF9300
:1002E000CDB7DEB784E290E02FEFFC01208385E2FA
:1002F00090E0FC01108281E290E0FC01108282E239
:1003000090E02FEFFC012083109223011092220134
:1003100010922701109226011092250110922401BB
:10032000109221011092200110921F0110921E01C3
:1003300010921D0110921C0161E070E080E090E0DD
:100340000E9417010E9467000E94B4010E9464028B
:100350000E9407030E94EB03000080911401882390
:10036000E1F310921401F0CFCF93DF93CDB7DEB756
:1003700080912001909121018130910591F081308F
:10038000910540F08230910509F453C0039709F4B8
:1003900068C07FC081E090E09093210180932001AC
:1003A00078C080E290E0FC018081882F90E081702D
:1003B0009927892B81F482E090E09093210180932A
:1003C00020018091120190911301019690931301E5
:1003D000809312015EC080E290E0FC018081882F52
:1003E00090E082709927892BE9F483E090E0909364
:1003F00021018093200180911201909113010197B6
:1004000039F481E090E0909313018093120141C090
:1004100080911201909113010197909313018093A1
:10042000120137C081E090E0909321018093200178
:1004300030C080E290E0FC018081882F90E08170E4
:100440009927892B39F482E090E0909321018093E1
:1004500020011FC081E090E0909321018093200152
:1004600018C080E290E0FC018081882F90E08270CB
:100470009927892B39F483E090E0909321018093B0
:10048000200107C081E090E090932101809320013A
:10049000000080912001909121018130910549F067
:1004A0008130910540F08230910539F0039739F0A1
:1004B00007C0000005C0000003C0000001C000002C
:1004C0000000DF91CF910895CF93DF93CDB7DEB7D2
:1004D00080912201909123018130910589F0813032
:1004E000910538F08230910569F1039709F44CC009
:1004F0006DC081E090E0909323018093220166C05B
:1005000080911E0190911F018C32914080F481E016
:1005100090E0909323018093220180911E0190919D
:100520001F01019690931F0180931E014FC082E02E
:1005300090E0909323018093220110921F0110926A
:100540001E0144C080911E0190911F018C32914088
:1005500080F482E090E090932301809322018091C7
:100560001E0190911F01019690931F0180931E011F
:100570002DC083E090E0909323018093220110929C
:100580001F0110921E0122C080911E0190911F0137
:100590008C32914080F483E090E09093230180932B
:1005A000220180911E0190911F01019690931F01DD
:1005B00080931E010AC081E090E090932301809314
:1005C000220110921F0110921E0100008091220151
:1005D000909123018130910549F08130910590F08F
:1005E0008230910539F0039749F00DC081E0809386
:1005F0001A0109C082E080931A0105C084E080934B
:100600001A0101C000000000DF91CF910895CF933F
:10061000DF93CDB7DEB7809126019091270181301D
:100620009105B1F08130910540F08230910509F4D7
:1006300050C0039709F48EC0A5C083E090E090936A
:1006400027018093260110921D0110921C019AC06F
:1006500020911C0130911D01809112019091130194
:1006600028173907D0F480E290E0FC018081882FC0
:1006700090E084709927892B81F481E090E0909339
:1006800027018093260180911C0190911D01019604
:1006900090931D0180931C0175C080E290E0FC01E5
:1006A0008081882F90E084709927892B59F482E00B
:1006B00090E0909327018093260110921D011092E3
:1006C0001C0160C083E090E0909327018093260195
:1006D00059C020911C0130911D018091120190910F
:1006E000130128173907D0F480E290E0FC018081E3
:1006F000882F90E084709927892B81F482E090E024
:10070000909327018093260180911C0190911D01F7
:10071000019690931D0180931C0134C080E290E00B
:10072000FC018081882F90E084709927892B59F4EF
:1007300081E090E0909327018093260110921D01A3
:1007400010921C011FC083E090E0909327018093DA
:10075000260118C080E290E0FC018081882F90E0A3
:1007600084709927892B39F481E090E090932701D8
:100770008093260107C083E090E090932701809347
:10078000260100008091260190912701813091057A
:1007900049F081309105D0F08230910539F003970E
:1007A00041F015C088E08093190111C01092190121
:1007B0000EC01092190110921D0110921C0181E0CF
:1007C00090E0909313018093120101C0000000009B
:1007D000DF91CF910895CF93DF93CDB7DEB78091AE
:1007E000240190912501009719F0019741F008C06C
:1007F00081E090E0909325018093240101C00000E6
:100800008091240190912501009789F0019709F0CA
:100810000FC09091190180911A01892B80931B01BF
:1008200085E290E020911B01FC01208301C00000C3
:0C0830000000DF91CF910895F894FFCFF5
:10083C000100000000000002000000004501000063
:04084C0000000100A7
:00000001FF
