:100000000C9446000C9465000C9465000C946500FB
:100010000C9465000C9465000C9465000C946500CC
:100020000C9465000C9465000C9465000C946500BC
:100030000C9465000C94DE000C9465000C94650033
:100040000C9465000C9465000C9465000C9465009C
:100050000C9465000C9465000C9465000C9465008C
:100060000C9465000C9465000C9465000C9465007C
:100070000C9465000C9465000C9465000C9465006C
:100080000C9465000C9465000C94650011241FBE4F
:10009000CFEFD0E4DEBFCDBF11E0A0E0B1E0E8E8F3
:1000A000F7E000E00BBF02C007900D92A431B1074A
:1000B000D9F721E0A4E1B1E001C01D92A532B20759
:1000C000E1F70E9442030C94C2030C940000CF930A
:1000D000DF9300D01F92CDB7DEB789837B836A831D
:1000E00089818A3031F48A819B81BC018DE00E9434
:1000F000670080EC90E0FC018081882F90E08072A6
:100100009927892BB1F386EC90E02981FC012083AB
:1001100080E090E00F900F900F90DF91CF910895C5
:10012000CF93DF93CDB7DEB781E890E02BE0FC0101
:10013000208388E890E02DE730E0FC0131832083C4
:100140008FE690E022E0FC01208384E890E0FC014F
:100150001182108280910E0190910F01A0911001E7
:10016000B09111018093150190931601A09317018E
:10017000B09318018FE590E02FE530E0F901208180
:100180002068FC0120830000DF91CF910895CF9378
:10019000DF93CDB7DEB781E890E0FC01108200006C
:1001A000DF91CF910895CF93DF93CDB7DEB781E094
:1001B000809314010000DF91CF9108951F920F9258
:1001C00000905F000F92112400905B000F922F931C
:1001D0003F934F935F936F937F938F939F93AF93CF
:1001E000BF93EF93FF93CF93DF93CDB7DEB78091AB
:1001F000150190911601A0911701B0911801019776
:10020000A109B1098093150190931601A0931701DC
:10021000B09318018091150190911601A0911701DA
:10022000B0911801892B8A2B8B2B91F40E94D3005B
:1002300080910E0190910F01A0911001B0911101D8
:100240008093150190931601A0931701B0931801A4
:100250000000DF91CF91FF91EF91BF91AF919F91FE
:100260008F917F916F915F914F913F912F910F905F
:1002700000925B000F9000925F000F901F90189506
:10028000CF93DF9300D000D0CDB7DEB769837A83F8
:100290008B839C8389819A81AB81BC8180930E0181
:1002A00090930F01A0931001B093110180910E0162
:1002B00090910F01A0911001B0911101809315014F
:1002C00090931601A0931701B093180100000F90AE
:1002D0000F900F900F90DF91CF910895CF93DF9300
:1002E000CDB7DEB780911B0190911C01009719F0EA
:1002F000019741F008C081E090E090931C01809349
:100300001B0101C0000080911B0190911C0100970E
:1003100019F1019709F023C080911901882321F474
:1003200081E0809319011AC080911901813021F474
:1003300082E08093190112C080911901823021F46A
:1003400084E0809319010AC080911901843031F44E
:1003500081E08093190102C0000001C0000000008C
:10036000DF91CF910895CF93DF93CDB7DEB7809122
:10037000230190912401009719F0019741F008C0E2
:1003800081E090E0909324018093230101C000005C
:100390008091230190912401009761F0019709F069
:1003A0000AC09091120181E0992309F080E08093C6
:1003B000120101C000000000DF91CF910895CF939A
:1003C000DF93CDB7DEB7809121019091220181307A
:1003D000910581F08130910530F08230910511F165
:1003E000039779F033C081E090E0909322018093ED
:1003F00021012CC082E090E09093220180932101A2
:1004000025C080E290E0FC018081882F90E084701C
:100410009927892BC1F482E090E090932201809388
:10042000210111C080E290E0FC018081882F90E0E2
:1004300084709927892B49F483E090E090932201FE
:100440008093210102C0000001C0000080912101C1
:10045000909122018230910549F08230910518F087
:10046000039709F007C010921A0104C081E080933D
:100470001A0100000000DF91CF910895CF93DF9320
:10048000CDB7DEB780911F01909120018230910598
:1004900009F459C08330910528F4009779F0019749
:1004A000A1F08FC08430910509F46CC084309105AF
:1004B00008F450C0059709F46CC083C081E090E057
:1004C0009093200180931F017CC080E290E0FC01AA
:1004D0008081882F90E081709927892B89F480E2B0
:1004E00090E0FC018081882F90E082709927892B11
:1004F00039F082E090E09093200180931F0122C0A8
:1005000080E290E0FC018081882F90E08170992743
:10051000892B89F080E290E0FC018081882F90E0B7
:1005200082709927892B39F484E090E09093200120
:1005300080931F0107C081E090E090932001809399
:100540001F013FC03EC083E090E090932001809364
:100550001F0137C080E290E0FC018081882F90E08D
:1005600081709927892B39F483E090E090932001E2
:1005700080931F0126C081E090E09093200180933A
:100580001F011FC085E090E09093200180931F0120
:1005900018C080E290E0FC018081882F90E082709A
:1005A0009927892B39F485E090E09093200180937E
:1005B0001F0106C081E090E09093200180931F010D
:1005C000000080911F019091200183309105D9F0A6
:1005D0008430910530F481309105B9F0029739F0FB
:1005E00017C08430910549F0059789F011C08091BA
:1005F00013018F5F809313010BC080911301815011
:100600008093130105C0000003C0000001C000007A
:100610000000DF91CF910895CF93DF93CDB7DEB780
:1006200080911D0190911E01892B09F001C00000ED
:1006300080911D0190911E01892B09F01FC085E258
:1006400090E020911201222F30E0220F331F220F61
:10065000331F220F331F322F20911901432F422BBA
:1006600020911A01222F30E022953295307F3227D7
:10067000207F3227242BFC01208300000000DF9123
:10068000CF910895CF93DF93CDB7DEB728970FB6FC
:10069000F894DEBF0FBECDBF84E290E02FEFFC01E7
:1006A000208385E290E0FC01108281E290E0FC0171
:1006B000108282E290E02FEFFC0120831A821982DF
:1006C0001C821B821E821D8281E090E098878F83AE
:1006D00010921C0110921B01109224011092230110
:1006E00010921E0110921D018F819885CC01A0E00F
:1006F000B0E0BC01CD010E9440010E9490008981C0
:100700009A818C32914020F00E946E011A821982E7
:100710008B819C81883E934020F00E94B3011C8213
:100720001B8280911301282F30E08D819E818217DA
:10073000930720F00E94DF011E821D820E943E026C
:100740000E940C030000809114018823E1F31092B1
:10075000140129813A818F819885820F931F9A8392
:1007600089832B813C818F819885820F931F9C8385
:100770008B832D813E818F819885820F931F9E836D
:080780008D83BDCFF894FFCF7B
:1007880000000002000000006700000000000100F7
:04079800000001025A
:00000001FF
