:100000000C9446000C9465000C9465000C946500FB
:100010000C9465000C9465000C9465000C946500CC
:100020000C9465000C9465000C9465000C946500BC
:100030000C9465000C94DE000C9465000C94650033
:100040000C9465000C9465000C9465000C9465009C
:100050000C9465000C9465000C9465000C9465008C
:100060000C9465000C9465000C9465000C9465007C
:100070000C9465000C9465000C9465000C9465006C
:100080000C9465000C9465000C94650011241FBE4F
:10009000CFEFD0E4DEBFCDBF11E0A0E0B1E0E8E5F6
:1000A000F5E000E00BBF02C007900D92A231B1074E
:1000B000D9F721E0A2E1B1E001C01D92AA31B20757
:1000C000E1F70E947B020C94AA020C940000CF93EB
:1000D000DF9300D01F92CDB7DEB789837B836A831D
:1000E00089818A3031F48A819B81BC018DE00E9434
:1000F000670080EC90E0FC018081882F90E08072A6
:100100009927892BB1F386EC90E02981FC012083AB
:1001100080E090E00F900F900F90DF91CF910895C5
:10012000CF93DF93CDB7DEB781E890E02BE0FC0101
:10013000208388E890E02DE730E0FC0131832083C4
:100140008FE690E022E0FC01208384E890E0FC014F
:100150001182108280910E0190910F01A0911001E7
:10016000B09111018093130190931401A093150194
:10017000B09316018FE590E02FE530E0F901208182
:100180002068FC0120830000DF91CF910895CF9378
:10019000DF93CDB7DEB781E890E0FC01108200006C
:1001A000DF91CF910895CF93DF93CDB7DEB781E094
:1001B000809312010000DF91CF9108951F920F925A
:1001C00000905F000F92112400905B000F922F931C
:1001D0003F934F935F936F937F938F939F93AF93CF
:1001E000BF93EF93FF93CF93DF93CDB7DEB78091AB
:1001F000130190911401A0911501B091160101977E
:10020000A109B1098093130190931401A0931501E2
:10021000B09316018091130190911401A0911501E2
:10022000B0911601892B8A2B8B2B91F40E94D3005D
:1002300080910E0190910F01A0911001B0911101D8
:100240008093130190931401A0931501B0931601AC
:100250000000DF91CF91FF91EF91BF91AF919F91FE
:100260008F917F916F915F914F913F912F910F905F
:1002700000925B000F9000925F000F901F90189506
:10028000CF93DF9300D000D0CDB7DEB769837A83F8
:100290008B839C8389819A81AB81BC8180930E0181
:1002A00090930F01A0931001B093110180910E0162
:1002B00090910F01A0911001B09111018093130151
:1002C00090931401A0931501B093160100000F90B4
:1002D0000F900F900F90DF91CF910895CF93DF9300
:1002E000CDB7DEB780911801909119018230910548
:1002F00009F47CC08330910528F4009751F00197F0
:1003000079F0E8C08330910509F4ABC00497A1F0FF
:10031000E1C081E090E09093190180931801E6C05C
:1003200085E290E027E0FC01208384E090E0909358
:10033000190180931801DAC080E290E0FC0180810D
:10034000882F90E081709927892BB9F485E290E09D
:10035000FC018081893008F0C4C085E290E0FC0196
:1003600020812F5FFC0120831092170182E090E032
:100370009093190180931801B4C080E290E0FC01D1
:100380008081882F90E082709927892BB9F485E2CB
:1003900090E0FC018081882309F4A3C085E290E00D
:1003A000FC0120812150FC0120831092170183E081
:1003B00090E0909319018093180193C080E290E03F
:1003C000FC018081882F90E080959095837099271B
:1003D000039729F485E290E0FC01108282C084E05A
:1003E00090E090931901809318017BC080E290E027
:1003F000FC018081882F90E081709927892B51F52D
:10040000809117018F5F8093170185E290E0FC01D6
:100410008081893008F067C0909117018DEC989F1A
:10042000812D1124869586958695880F282F220F79
:10043000220F820FF92FF81B8F2F882309F053C04A
:1004400085E290E0FC0120812F5FFC012083109267
:10045000170149C084E090E090931901809318013E
:1004600042C080E290E0FC018081882F90E08270A1
:100470009927892B41F5809117018F5F8093170190
:1004800085E290E0FC018081882379F19091170149
:100490008DEC989F812D1124869586958695880FE1
:1004A000282F220F220F820FF92FF81B8F2F88235E
:1004B000E1F485E290E0FC0120812150FC012083E1
:1004C0001092170112C084E090E09093190180937C
:1004D00018010BC081E090E09093190180931801FE
:1004E00005C0000003C0000001C0000000000000C3
:1004F000DF91CF910895CF93DF93CDB7DEB781E23F
:1005000090E0FC01108282E290E02FEFFC0120835A
:1005100084E290E02FEFFC01208385E290E027E069
:10052000FC01208364E670E080E090E00E944001DE
:100530000E94900081E090E090931901809318014F
:100540000E946E010000809112018823E1F3109255
:080550001201F6CFF894FFCF71
:100558000000000200000000670000000000010029
:02056800000091
:00000001FF
