:100000000C9446000C9465000C9465000C946500FB
:100010000C9465000C9465000C9465000C946500CC
:100020000C9465000C9465000C9465000C946500BC
:100030000C9465000C94DE000C9465000C94650033
:100040000C9465000C9465000C9465000C9465009C
:100050000C9465000C9465000C9465000C9465008C
:100060000C9465000C9465000C9465000C9465007C
:100070000C9465000C9465000C9465000C9465006C
:100080000C9465000C9465000C94650011241FBE4F
:10009000CFEFD0E4DEBFCDBF11E0A0E0B1E0ECE6F1
:1000A000F5E000E00BBF02C007900D92A231B1074E
:1000B000D9F721E0A2E1B1E001C01D92AB31B20756
:1000C000E1F70E9486020C94B4020C940000CF93D6
:1000D000DF9300D01F92CDB7DEB789837B836A831D
:1000E00089818A3031F48A819B81BC018DE00E9434
:1000F000670080EC90E0FC018081882F90E08072A6
:100100009927892BB1F386EC90E02981FC012083AB
:1001100080E090E00F900F900F90DF91CF910895C5
:10012000CF93DF93CDB7DEB781E890E02BE0FC0101
:10013000208388E890E02DE730E0FC0131832083C4
:100140008FE690E022E0FC01208384E890E0FC014F
:100150001182108280910E0190910F01A0911001E7
:10016000B09111018093130190931401A093150194
:10017000B09316018FE590E02FE530E0F901208182
:100180002068FC0120830000DF91CF910895CF9378
:10019000DF93CDB7DEB781E890E0FC01108200006C
:1001A000DF91CF910895CF93DF93CDB7DEB781E094
:1001B000809312010000DF91CF9108951F920F925A
:1001C00000905F000F92112400905B000F922F931C
:1001D0003F934F935F936F937F938F939F93AF93CF
:1001E000BF93EF93FF93CF93DF93CDB7DEB78091AB
:1001F000130190911401A0911501B091160101977E
:10020000A109B1098093130190931401A0931501E2
:10021000B09316018091130190911401A0911501E2
:10022000B0911601892B8A2B8B2B91F40E94D3005D
:1002300080910E0190910F01A0911001B0911101D8
:100240008093130190931401A0931501B0931601AC
:100250000000DF91CF91FF91EF91BF91AF919F91FE
:100260008F917F916F915F914F913F912F910F905F
:1002700000925B000F9000925F000F901F90189506
:10028000CF93DF9300D000D0CDB7DEB769837A83F8
:100290008B839C8389819A81AB81BC8180930E0181
:1002A00090930F01A0931001B093110180910E0162
:1002B00090910F01A0911001B09111018093130151
:1002C00090931401A0931501B093160100000F90B4
:1002D0000F900F900F90DF91CF910895CF93DF9300
:1002E000CDB7DEB78091190190911A018230910546
:1002F00061F18330910528F4009779F00197A1F01E
:10030000FBC08430910509F4C4C08430910508F421
:1003100075C0059709F4D5C0EFC081E090E09093D7
:100320001A0180931901EEC081E0809318011092A8
:10033000170185E290E021E0FC01208382E090E05B
:1003400090931A0180931901DDC080E290E0FC01D6
:100350008081882F90E081709927892B29F08091E6
:1003600017018F5F8093170180E290E0FC0180818C
:10037000882F90E081709927892B59F4809117017B
:10038000882339F084E090E090931A01809319015A
:100390002FC080911801882361F485E290E021E06C
:1003A000FC01208382E090E090931A018093190170
:1003B0001FC080911801813061F485E290E022E055
:1003C000FC01208382E090E090931A018093190150
:1003D0000FC080911801823059F485E290E024E04A
:1003E000FC01208383E090E090931A01809319012F
:1003F000809118018F5F8093180184C080E290E0A3
:10040000FC018081882F90E081709927892B29F049
:10041000809117018F5F8093170180E290E0FC01CB
:100420008081882F90E081709927892B59F48091E1
:100430001701882339F084E090E090931A018093AB
:10044000190121C080911801833061F485E290E0A8
:1004500022E0FC01208383E090E090931A018093D6
:10046000190111C080911801843069F410921801AB
:1004700085E290E021E0FC01208382E090E090930F
:100480001A0180931901809118018F5F80931801E0
:1004900039C080E290E0FC018081882F90E081707B
:1004A0009927892B39F484E090E090931A01809386
:1004B000190128C085E090E090931A0180931901FA
:1004C00021C080E290E0FC018081882F90E0817063
:1004D0009927892BB1F481E08093180110921701BC
:1004E00085E290E021E0FC01208382E090E090939F
:1004F0001A018093190105C010921A011092190176
:1005000001C000000000DF91CF910895CF93DF93E9
:10051000CDB7DEB781E290E0FC01108282E290E08C
:100520002FEFFC01208384E290E02FEFFC01208379
:1005300085E290E0FC0110826CE271E080E090E0E6
:100540000E9440010E94900081E090E090931A0187
:10055000809319010E946E0100008091120188238E
:0C056000E1F310921201F6CFF894FFCFE7
:10056C000000000200000000670000000000010015
:02057C0000007D
:00000001FF
