:100000000C9454000C9473000C9473000C947300C3
:100010000C9473000C9473000C9473000C94730094
:100020000C9473000C9473000C9473000C94730084
:100030000C9473000C94EC000C9473000C947300FB
:100040000C9473000C9473000C9473000C94730064
:100050000C9473000C9473000C9473000C94730054
:100060000C9473000C9473000C9473000C94730044
:100070000C9473000C9473000C9473000C94730034
:100080000C9473000C9473000C94730096019D0102
:10009000A401BC01D401EC0104024B024B02370263
:1000A0003D0243024B024B0211241FBECFEFD0E4AE
:1000B000DEBFCDBF11E0A0E0B1E0E2E1F5E000E09D
:1000C0000BBF02C007900D92A231B107D9F721E012
:1000D000A2E1B1E001C01D92A931B207E1F70E948F
:1000E00050020C9487020C940000CF93DF9300D051
:1000F0001F92CDB7DEB789837B836A8389818A307B
:1001000031F48A819B81BC018DE00E94750080ECF6
:1001100090E0FC018081882F90E080729927892BE4
:10012000B1F386EC90E02981FC01208380E090E02F
:100130000F900F900F90DF91CF910895CF93DF93A1
:10014000CDB7DEB781E890E02BE0FC01208388E8A2
:1001500090E02DE730E0FC01318320838FE690E0D2
:1001600022E0FC01208384E890E0FC0111821082EF
:1001700080910E0190910F01A0911001B091110199
:100180008093130190931401A0931501B09316016D
:100190008FE590E02FE530E0F90120812068FC0137
:1001A00020830000DF91CF910895CF93DF93CDB7E7
:1001B000DEB781E890E0FC0110820000DF91CF9172
:1001C0000895CF93DF93CDB7DEB781E0809312011E
:1001D0000000DF91CF9108951F920F9200905F0071
:1001E0000F92112400905B000F922F933F934F9337
:1001F0005F936F937F938F939F93AF93BF93EF938F
:10020000FF93CF93DF93CDB7DEB780911301909129
:100210001401A0911501B09116010197A109B1092E
:100220008093130190931401A0931501B0931601CC
:100230008091130190911401A0911501B0911601C4
:10024000892B8A2B8B2B91F40E94E10080910E0167
:1002500090910F01A0911001B091110180931301B1
:1002600090931401A0931501B09316010000DF9143
:10027000CF91FF91EF91BF91AF919F918F917F911E
:100280006F915F914F913F912F910F9000925B0082
:100290000F9000925F000F901F901895CF93DF93FF
:1002A00000D000D0CDB7DEB769837A838B839C837F
:1002B00089819A81AB81BC8180930E0190930F015B
:1002C000A0931001B093110180910E0190910F0144
:1002D000A0911001B091110180931301909314012A
:1002E000A0931501B093160100000F900F900F908E
:1002F0000F90DF91CF910895CF93DF93CDB7DEB705
:100300008091170190911801CC01A0E0B0E040E08D
:1003100050E026E030E0841B950B2817390708F4DD
:100320008AC08A5B9F4FFC010C947E0281E090E0C2
:10033000909318018093170185C082E090E090931C
:100340001801809317017EC080E290E0FC0180815B
:10035000882F90E081709927892B39F485E090E00F
:1003600090931801809317016DC083E090E0909303
:1003700018018093170166C080E290E0FC01808143
:10038000882F90E081709927892B39F485E090E0DF
:10039000909318018093170155C084E090E09093EA
:1003A0001801809317014EC080E290E0FC0180812B
:1003B000882F90E081709927892B39F485E090E0AF
:1003C00090931801809317013DC082E090E09093D4
:1003D00018018093170136C080E290E0FC01808113
:1003E000882F90E081709927892B39F485E090E07F
:1003F000909318018093170125C086E090E09093B8
:100400001801809317011EC080E290E0FC018081FA
:10041000882F90E081709927892B39F482E090E051
:10042000909318018093170106C086E090E09093A6
:1004300018018093170181E090E090931801809358
:10044000170100008091170190911801CC01A0E0E4
:10045000B0E040E050E026E030E0841B950B281728
:100460003907B8F0835B9F4FFC010C947E0285E254
:1004700090E021E0FC0120830FC085E290E022E0C3
:10048000FC01208309C085E290E024E0FC01208388
:1004900003C0000001C000000000DF91CF9108956B
:1004A000CF93DF93CDB7DEB781E290E0FC011082FD
:1004B00082E290E02FEFFC01208384E290E02FEFB6
:1004C000FC01208385E290E0FC01108268EE73E07D
:1004D00080E090E00E944E010E949E0081E090E04A
:1004E00090931801809317010E947C010000809175
:1004F00012018823E1F310921201F6CFEE0FFF1FD5
:100500000024001C0BBE0790F691E02D0994F8948E
:02051000FFCF1B
:100512000000000200000000750000000000010061
:020522000000D7
:00000001FF
